{
  "_format": "hh-sol-artifact-1",
  "contractName": "SplootsNFT",
  "sourceName": "contracts/splootsNFT.sol",
  "abi": [
    {
      "inputs": [],
      "stateMutability": "payable",
      "type": "constructor"
    },
    {
      "anonymous": false,
      "inputs": [
        {
          "indexed": true,
          "internalType": "address",
          "name": "owner",
          "type": "address"
        },
        {
          "indexed": true,
          "internalType": "address",
          "name": "approved",
          "type": "address"
        },
        {
          "indexed": true,
          "internalType": "uint256",
          "name": "tokenId",
          "type": "uint256"
        }
      ],
      "name": "Approval",
      "type": "event"
    },
    {
      "anonymous": false,
      "inputs": [
        {
          "indexed": true,
          "internalType": "address",
          "name": "owner",
          "type": "address"
        },
        {
          "indexed": true,
          "internalType": "address",
          "name": "operator",
          "type": "address"
        },
        {
          "indexed": false,
          "internalType": "bool",
          "name": "approved",
          "type": "bool"
        }
      ],
      "name": "ApprovalForAll",
      "type": "event"
    },
    {
      "anonymous": false,
      "inputs": [
        {
          "indexed": true,
          "internalType": "address",
          "name": "previousOwner",
          "type": "address"
        },
        {
          "indexed": true,
          "internalType": "address",
          "name": "newOwner",
          "type": "address"
        }
      ],
      "name": "OwnershipTransferred",
      "type": "event"
    },
    {
      "anonymous": false,
      "inputs": [
        {
          "indexed": false,
          "internalType": "address",
          "name": "account",
          "type": "address"
        }
      ],
      "name": "Paused",
      "type": "event"
    },
    {
      "anonymous": false,
      "inputs": [
        {
          "indexed": true,
          "internalType": "address",
          "name": "from",
          "type": "address"
        },
        {
          "indexed": true,
          "internalType": "address",
          "name": "to",
          "type": "address"
        },
        {
          "indexed": true,
          "internalType": "uint256",
          "name": "tokenId",
          "type": "uint256"
        }
      ],
      "name": "Transfer",
      "type": "event"
    },
    {
      "anonymous": false,
      "inputs": [
        {
          "indexed": false,
          "internalType": "address",
          "name": "account",
          "type": "address"
        }
      ],
      "name": "Unpaused",
      "type": "event"
    },
    {
      "inputs": [],
      "name": "PublicMintEnabled",
      "outputs": [
        {
          "internalType": "bool",
          "name": "",
          "type": "bool"
        }
      ],
      "stateMutability": "view",
      "type": "function"
    },
    {
      "inputs": [],
      "name": "ROYALTY_PERCENTAGE",
      "outputs": [
        {
          "internalType": "uint256",
          "name": "",
          "type": "uint256"
        }
      ],
      "stateMutability": "view",
      "type": "function"
    },
    {
      "inputs": [
        {
          "internalType": "address[]",
          "name": "addresses",
          "type": "address[]"
        }
      ],
      "name": "addToWhitelist",
      "outputs": [],
      "stateMutability": "nonpayable",
      "type": "function"
    },
    {
      "inputs": [
        {
          "internalType": "address",
          "name": "to",
          "type": "address"
        },
        {
          "internalType": "uint256",
          "name": "tokenId",
          "type": "uint256"
        }
      ],
      "name": "approve",
      "outputs": [],
      "stateMutability": "nonpayable",
      "type": "function"
    },
    {
      "inputs": [
        {
          "internalType": "address",
          "name": "owner",
          "type": "address"
        }
      ],
      "name": "balanceOf",
      "outputs": [
        {
          "internalType": "uint256",
          "name": "",
          "type": "uint256"
        }
      ],
      "stateMutability": "view",
      "type": "function"
    },
    {
      "inputs": [],
      "name": "claimMint",
      "outputs": [],
      "stateMutability": "nonpayable",
      "type": "function"
    },
    {
      "inputs": [
        {
          "internalType": "uint256",
          "name": "tokenId",
          "type": "uint256"
        }
      ],
      "name": "getApproved",
      "outputs": [
        {
          "internalType": "address",
          "name": "",
          "type": "address"
        }
      ],
      "stateMutability": "view",
      "type": "function"
    },
    {
      "inputs": [],
      "name": "getMintPrice",
      "outputs": [
        {
          "internalType": "uint256",
          "name": "",
          "type": "uint256"
        }
      ],
      "stateMutability": "view",
      "type": "function"
    },
    {
      "inputs": [],
      "name": "getNumMintedNFTs",
      "outputs": [
        {
          "internalType": "uint256",
          "name": "",
          "type": "uint256"
        }
      ],
      "stateMutability": "view",
      "type": "function"
    },
    {
      "inputs": [
        {
          "internalType": "address",
          "name": "",
          "type": "address"
        }
      ],
      "name": "hasClaimed",
      "outputs": [
        {
          "internalType": "bool",
          "name": "",
          "type": "bool"
        }
      ],
      "stateMutability": "view",
      "type": "function"
    },
    {
      "inputs": [
        {
          "internalType": "address",
          "name": "owner",
          "type": "address"
        },
        {
          "internalType": "address",
          "name": "operator",
          "type": "address"
        }
      ],
      "name": "isApprovedForAll",
      "outputs": [
        {
          "internalType": "bool",
          "name": "",
          "type": "bool"
        }
      ],
      "stateMutability": "view",
      "type": "function"
    },
    {
      "inputs": [
        {
          "internalType": "address",
          "name": "_address",
          "type": "address"
        }
      ],
      "name": "isWhitelisted",
      "outputs": [
        {
          "internalType": "bool",
          "name": "",
          "type": "bool"
        }
      ],
      "stateMutability": "view",
      "type": "function"
    },
    {
      "inputs": [],
      "name": "maxPerWallet",
      "outputs": [
        {
          "internalType": "uint256",
          "name": "",
          "type": "uint256"
        }
      ],
      "stateMutability": "view",
      "type": "function"
    },
    {
      "inputs": [],
      "name": "maxSupply",
      "outputs": [
        {
          "internalType": "uint256",
          "name": "",
          "type": "uint256"
        }
      ],
      "stateMutability": "view",
      "type": "function"
    },
    {
      "inputs": [],
      "name": "mint",
      "outputs": [],
      "stateMutability": "payable",
      "type": "function"
    },
    {
      "inputs": [],
      "name": "mintPrice",
      "outputs": [
        {
          "internalType": "uint256",
          "name": "",
          "type": "uint256"
        }
      ],
      "stateMutability": "view",
      "type": "function"
    },
    {
      "inputs": [],
      "name": "name",
      "outputs": [
        {
          "internalType": "string",
          "name": "",
          "type": "string"
        }
      ],
      "stateMutability": "view",
      "type": "function"
    },
    {
      "inputs": [],
      "name": "owner",
      "outputs": [
        {
          "internalType": "address",
          "name": "",
          "type": "address"
        }
      ],
      "stateMutability": "view",
      "type": "function"
    },
    {
      "inputs": [
        {
          "internalType": "uint256",
          "name": "tokenId",
          "type": "uint256"
        }
      ],
      "name": "ownerOf",
      "outputs": [
        {
          "internalType": "address",
          "name": "",
          "type": "address"
        }
      ],
      "stateMutability": "view",
      "type": "function"
    },
    {
      "inputs": [],
      "name": "pause",
      "outputs": [],
      "stateMutability": "nonpayable",
      "type": "function"
    },
    {
      "inputs": [],
      "name": "paused",
      "outputs": [
        {
          "internalType": "bool",
          "name": "",
          "type": "bool"
        }
      ],
      "stateMutability": "view",
      "type": "function"
    },
    {
      "inputs": [
        {
          "internalType": "address[]",
          "name": "addresses",
          "type": "address[]"
        }
      ],
      "name": "removeFromWhitelist",
      "outputs": [],
      "stateMutability": "nonpayable",
      "type": "function"
    },
    {
      "inputs": [],
      "name": "renounceOwnership",
      "outputs": [],
      "stateMutability": "nonpayable",
      "type": "function"
    },
    {
      "inputs": [
        {
          "internalType": "uint256",
          "name": "_tokenId",
          "type": "uint256"
        },
        {
          "internalType": "uint256",
          "name": "_salePrice",
          "type": "uint256"
        }
      ],
      "name": "royaltyInfo",
      "outputs": [
        {
          "internalType": "address",
          "name": "receiver",
          "type": "address"
        },
        {
          "internalType": "uint256",
          "name": "royaltyAmount",
          "type": "uint256"
        }
      ],
      "stateMutability": "view",
      "type": "function"
    },
    {
      "inputs": [
        {
          "internalType": "address",
          "name": "from",
          "type": "address"
        },
        {
          "internalType": "address",
          "name": "to",
          "type": "address"
        },
        {
          "internalType": "uint256",
          "name": "tokenId",
          "type": "uint256"
        }
      ],
      "name": "safeTransferFrom",
      "outputs": [],
      "stateMutability": "nonpayable",
      "type": "function"
    },
    {
      "inputs": [
        {
          "internalType": "address",
          "name": "from",
          "type": "address"
        },
        {
          "internalType": "address",
          "name": "to",
          "type": "address"
        },
        {
          "internalType": "uint256",
          "name": "tokenId",
          "type": "uint256"
        },
        {
          "internalType": "bytes",
          "name": "data",
          "type": "bytes"
        }
      ],
      "name": "safeTransferFrom",
      "outputs": [],
      "stateMutability": "nonpayable",
      "type": "function"
    },
    {
      "inputs": [
        {
          "internalType": "address",
          "name": "operator",
          "type": "address"
        },
        {
          "internalType": "bool",
          "name": "approved",
          "type": "bool"
        }
      ],
      "name": "setApprovalForAll",
      "outputs": [],
      "stateMutability": "nonpayable",
      "type": "function"
    },
    {
      "inputs": [
        {
          "internalType": "string",
          "name": "baseTokenUri_",
          "type": "string"
        }
      ],
      "name": "setBaseTokenUri",
      "outputs": [],
      "stateMutability": "nonpayable",
      "type": "function"
    },
    {
      "inputs": [
        {
          "internalType": "bool",
          "name": "PublicMintEnabled_",
          "type": "bool"
        }
      ],
      "name": "setPublicMintEnabled",
      "outputs": [],
      "stateMutability": "nonpayable",
      "type": "function"
    },
    {
      "inputs": [
        {
          "internalType": "address payable",
          "name": "_withdrawWallet",
          "type": "address"
        }
      ],
      "name": "setWithdrawWallet",
      "outputs": [],
      "stateMutability": "nonpayable",
      "type": "function"
    },
    {
      "inputs": [
        {
          "internalType": "bytes4",
          "name": "interfaceId",
          "type": "bytes4"
        }
      ],
      "name": "supportsInterface",
      "outputs": [
        {
          "internalType": "bool",
          "name": "",
          "type": "bool"
        }
      ],
      "stateMutability": "view",
      "type": "function"
    },
    {
      "inputs": [],
      "name": "symbol",
      "outputs": [
        {
          "internalType": "string",
          "name": "",
          "type": "string"
        }
      ],
      "stateMutability": "view",
      "type": "function"
    },
    {
      "inputs": [
        {
          "internalType": "uint256",
          "name": "index",
          "type": "uint256"
        }
      ],
      "name": "tokenByIndex",
      "outputs": [
        {
          "internalType": "uint256",
          "name": "",
          "type": "uint256"
        }
      ],
      "stateMutability": "view",
      "type": "function"
    },
    {
      "inputs": [
        {
          "internalType": "address",
          "name": "owner",
          "type": "address"
        },
        {
          "internalType": "uint256",
          "name": "index",
          "type": "uint256"
        }
      ],
      "name": "tokenOfOwnerByIndex",
      "outputs": [
        {
          "internalType": "uint256",
          "name": "",
          "type": "uint256"
        }
      ],
      "stateMutability": "view",
      "type": "function"
    },
    {
      "inputs": [
        {
          "internalType": "uint256",
          "name": "tokenID_",
          "type": "uint256"
        }
      ],
      "name": "tokenURI",
      "outputs": [
        {
          "internalType": "string",
          "name": "",
          "type": "string"
        }
      ],
      "stateMutability": "view",
      "type": "function"
    },
    {
      "inputs": [],
      "name": "totalMinted",
      "outputs": [
        {
          "internalType": "uint256",
          "name": "",
          "type": "uint256"
        }
      ],
      "stateMutability": "view",
      "type": "function"
    },
    {
      "inputs": [],
      "name": "totalSupply",
      "outputs": [
        {
          "internalType": "uint256",
          "name": "",
          "type": "uint256"
        }
      ],
      "stateMutability": "view",
      "type": "function"
    },
    {
      "inputs": [
        {
          "internalType": "address",
          "name": "from",
          "type": "address"
        },
        {
          "internalType": "address",
          "name": "to",
          "type": "address"
        },
        {
          "internalType": "uint256",
          "name": "tokenId",
          "type": "uint256"
        }
      ],
      "name": "transferFrom",
      "outputs": [],
      "stateMutability": "nonpayable",
      "type": "function"
    },
    {
      "inputs": [
        {
          "internalType": "address",
          "name": "newOwner",
          "type": "address"
        }
      ],
      "name": "transferOwnership",
      "outputs": [],
      "stateMutability": "nonpayable",
      "type": "function"
    },
    {
      "inputs": [],
      "name": "unpause",
      "outputs": [],
      "stateMutability": "nonpayable",
      "type": "function"
    },
    {
      "inputs": [
        {
          "internalType": "address",
          "name": "",
          "type": "address"
        }
      ],
      "name": "walletMints",
      "outputs": [
        {
          "internalType": "uint256",
          "name": "",
          "type": "uint256"
        }
      ],
      "stateMutability": "view",
      "type": "function"
    },
    {
      "inputs": [
        {
          "internalType": "address",
          "name": "",
          "type": "address"
        }
      ],
      "name": "whitelist",
      "outputs": [
        {
          "internalType": "bool",
          "name": "",
          "type": "bool"
        }
      ],
      "stateMutability": "view",
      "type": "function"
    },
    {
      "inputs": [],
      "name": "withdraw",
      "outputs": [],
      "stateMutability": "nonpayable",
      "type": "function"
    },
    {
      "inputs": [],
      "name": "withdrawWallet",
      "outputs": [
        {
          "internalType": "address payable",
          "name": "",
          "type": "address"
        }
      ],
      "stateMutability": "view",
      "type": "function"
    }
  ],
  "bytecode": "0x60806040526040518060400160405280600a81526020017f53706c6f6f74734e4654000000000000000000000000000000000000000000008152506040518060400160405280600481526020017f53504c54000000000000000000000000000000000000000000000000000000008152508160009080519060200190620000889291906200025a565b508060019080519060200190620000a19291906200025a565b505050620000c4620000b86200018c60201b60201c565b6200019460201b60201c565b6000600a60146101000a81548160ff0219169083151502179055506000600d819055506000600e819055506032600f819055506001601081905550739f274ebdcfa538ed275f6098213c61df0b39c80c601360006101000a81548173ffffffffffffffffffffffffffffffffffffffff021916908373ffffffffffffffffffffffffffffffffffffffff1602179055506040518060800160405280604481526020016200515c6044913960129080519060200190620001859291906200025a565b506200036f565b600033905090565b6000600a60009054906101000a900473ffffffffffffffffffffffffffffffffffffffff16905081600a60006101000a81548173ffffffffffffffffffffffffffffffffffffffff021916908373ffffffffffffffffffffffffffffffffffffffff1602179055508173ffffffffffffffffffffffffffffffffffffffff168173ffffffffffffffffffffffffffffffffffffffff167f8be0079c531659141344cd1fd0a4f28419497f9722a3daafe3b4186f6b6457e060405160405180910390a35050565b82805462000268906200030a565b90600052602060002090601f0160209004810192826200028c5760008555620002d8565b82601f10620002a757805160ff1916838001178555620002d8565b82800160010185558215620002d8579182015b82811115620002d7578251825591602001919060010190620002ba565b5b509050620002e79190620002eb565b5090565b5b8082111562000306576000816000905550600101620002ec565b5090565b600060028204905060018216806200032357607f821691505b602082108114156200033a576200033962000340565b5b50919050565b7f4e487b7100000000000000000000000000000000000000000000000000000000600052602260045260246000fd5b614ddd806200037f6000396000f3fe6080604052600436106102675760003560e01c806373b2e80e11610144578063a22cb465116100b6578063be2f5c0d1161007a578063be2f5c0d146108ea578063c87b56dd14610915578063d5abeb0114610952578063e985e9c51461097d578063f0293fd3146109ba578063f2fde38b146109f757610267565b8063a22cb46514610817578063a2309ff814610840578063a7f93ebd1461086b578063b88d4fde14610896578063bad7871e146108bf57610267565b806385d178f41161010857806385d178f4146107075780638da5cb5b146107325780639373f4321461075d57806395652cfa1461078657806395d89b41146107af5780639b19251a146107da57610267565b806373b2e80e1461064a57806374b31672146106875780637f6497831461069e578063818668d7146106c75780638456cb59146106f057610267565b80633f4ba83a116101dd578063548db174116101a1578063548db1741461053a5780635c975abb146105635780636352211e1461058e5780636817c76c146105cb57806370a08231146105f6578063715018a61461063357610267565b80633f4ba83a1461046757806342842e0e1461047e578063453c2310146104a7578063463b08db146104d25780634f6ccce7146104fd57610267565b806318160ddd1161022f57806318160ddd1461034457806323b872dd1461036f5780632a55205a146103985780632f745c59146103d65780633af32abf146104135780633ccfd60b1461045057610267565b806301ffc9a71461026c57806306fdde03146102a9578063081812fc146102d4578063095ea7b3146103115780631249c58b1461033a575b600080fd5b34801561027857600080fd5b50610293600480360381019061028e91906137e0565b610a20565b6040516102a09190613f20565b60405180910390f35b3480156102b557600080fd5b506102be610a9a565b6040516102cb9190613f3b565b60405180910390f35b3480156102e057600080fd5b506102fb60048036038101906102f69190613877565b610b2c565b6040516103089190613e75565b60405180910390f35b34801561031d57600080fd5b506103386004803603810190610333919061373a565b610b72565b005b610342610c8a565b005b34801561035057600080fd5b50610359610ec6565b60405161036691906142bd565b60405180910390f35b34801561037b57600080fd5b5061039660048036038101906103919190613634565b610ed3565b005b3480156103a457600080fd5b506103bf60048036038101906103ba91906138a0565b610f33565b6040516103cd929190613ef7565b60405180910390f35b3480156103e257600080fd5b506103fd60048036038101906103f8919061373a565b610f64565b60405161040a91906142bd565b60405180910390f35b34801561041f57600080fd5b5061043a600480360381019061043591906135a6565b611009565b6040516104479190613f20565b60405180910390f35b34801561045c57600080fd5b5061046561105f565b005b34801561047357600080fd5b5061047c611138565b005b34801561048a57600080fd5b506104a560048036038101906104a09190613634565b61114a565b005b3480156104b357600080fd5b506104bc61116a565b6040516104c991906142bd565b60405180910390f35b3480156104de57600080fd5b506104e7611170565b6040516104f491906142bd565b60405180910390f35b34801561050957600080fd5b50610524600480360381019061051f9190613877565b611176565b60405161053191906142bd565b60405180910390f35b34801561054657600080fd5b50610561600480360381019061055c9190613776565b61120d565b005b34801561056f57600080fd5b506105786112d0565b6040516105859190613f20565b60405180910390f35b34801561059a57600080fd5b506105b560048036038101906105b09190613877565b6112e7565b6040516105c29190613e75565b60405180910390f35b3480156105d757600080fd5b506105e061136e565b6040516105ed91906142bd565b60405180910390f35b34801561060257600080fd5b5061061d600480360381019061061891906135a6565b611374565b60405161062a91906142bd565b60405180910390f35b34801561063f57600080fd5b5061064861142c565b005b34801561065657600080fd5b50610671600480360381019061066c91906135a6565b611440565b60405161067e9190613f20565b60405180910390f35b34801561069357600080fd5b5061069c611460565b005b3480156106aa57600080fd5b506106c560048036038101906106c09190613776565b611725565b005b3480156106d357600080fd5b506106ee60048036038101906106e991906137b7565b6117e8565b005b3480156106fc57600080fd5b5061070561180d565b005b34801561071357600080fd5b5061071c61181f565b6040516107299190613e90565b60405180910390f35b34801561073e57600080fd5b50610747611845565b6040516107549190613e75565b60405180910390f35b34801561076957600080fd5b50610784600480360381019061077f91906135cf565b61186f565b005b34801561079257600080fd5b506107ad60048036038101906107a89190613832565b6118bb565b005b3480156107bb57600080fd5b506107c46118d9565b6040516107d19190613f3b565b60405180910390f35b3480156107e657600080fd5b5061080160048036038101906107fc91906135a6565b61196b565b60405161080e9190613f20565b60405180910390f35b34801561082357600080fd5b5061083e600480360381019061083991906136fe565b61198b565b005b34801561084c57600080fd5b506108556119a1565b60405161086291906142bd565b60405180910390f35b34801561087757600080fd5b506108806119a7565b60405161088d91906142bd565b60405180910390f35b3480156108a257600080fd5b506108bd60048036038101906108b89190613683565b6119b1565b005b3480156108cb57600080fd5b506108d4611a13565b6040516108e19190613f20565b60405180910390f35b3480156108f657600080fd5b506108ff611a26565b60405161090c91906142bd565b60405180910390f35b34801561092157600080fd5b5061093c60048036038101906109379190613877565b611a30565b6040516109499190613f3b565b60405180910390f35b34801561095e57600080fd5b50610967611aac565b60405161097491906142bd565b60405180910390f35b34801561098957600080fd5b506109a4600480360381019061099f91906135f8565b611ab2565b6040516109b19190613f20565b60405180910390f35b3480156109c657600080fd5b506109e160048036038101906109dc91906135a6565b611b46565b6040516109ee91906142bd565b60405180910390f35b348015610a0357600080fd5b50610a1e6004803603810190610a1991906135a6565b611b5e565b005b60007f780e9d63000000000000000000000000000000000000000000000000000000007bffffffffffffffffffffffffffffffffffffffffffffffffffffffff1916827bffffffffffffffffffffffffffffffffffffffffffffffffffffffff19161480610a935750610a9282611be2565b5b9050919050565b606060008054610aa99061459a565b80601f0160208091040260200160405190810160405280929190818152602001828054610ad59061459a565b8015610b225780601f10610af757610100808354040283529160200191610b22565b820191906000526020600020905b815481529060010190602001808311610b0557829003601f168201915b5050505050905090565b6000610b3782611cc4565b6004600083815260200190815260200160002060009054906101000a900473ffffffffffffffffffffffffffffffffffffffff169050919050565b6000610b7d826112e7565b90508073ffffffffffffffffffffffffffffffffffffffff168373ffffffffffffffffffffffffffffffffffffffff161415610bee576040517f08c379a0000000000000000000000000000000000000000000000000000000008152600401610be5906141fd565b60405180910390fd5b8073ffffffffffffffffffffffffffffffffffffffff16610c0d611d0f565b73ffffffffffffffffffffffffffffffffffffffff161480610c3c5750610c3b81610c36611d0f565b611ab2565b5b610c7b576040517f08c379a0000000000000000000000000000000000000000000000000000000008152600401610c729061421d565b60405180910390fd5b610c858383611d17565b505050565b610c92611dd0565b600060019050601160009054906101000a900460ff16610ce7576040517f08c379a0000000000000000000000000000000000000000000000000000000008152600401610cde90613ffd565b60405180910390fd5b600d5481610cf59190614444565b3414610d36576040517f08c379a0000000000000000000000000000000000000000000000000000000008152600401610d2d90613f5d565b60405180910390fd5b600f5481600e54610d4791906143bd565b1115610d88576040517f08c379a0000000000000000000000000000000000000000000000000000000008152600401610d7f906140fd565b60405180910390fd5b60105481601460003373ffffffffffffffffffffffffffffffffffffffff1673ffffffffffffffffffffffffffffffffffffffff16815260200190815260200160002054610dd691906143bd565b1115610e17576040517f08c379a0000000000000000000000000000000000000000000000000000000008152600401610e0e9061407d565b60405180910390fd5b60005b81811015610ec25760006001600e54610e3391906143bd565b9050600e6000815480929190610e48906145fd565b91905055506001601460003373ffffffffffffffffffffffffffffffffffffffff1673ffffffffffffffffffffffffffffffffffffffff1681526020019081526020016000206000828254610e9d91906143bd565b92505081905550610eae3382611e1a565b508080610eba906145fd565b915050610e1a565b5050565b6000600880549050905090565b610ee4610ede611d0f565b82611e38565b610f23576040517f08c379a0000000000000000000000000000000000000000000000000000000008152600401610f1a90613f9d565b60405180910390fd5b610f2e838383611ecd565b505050565b600080610f3e611845565b91506127106101f484610f519190614444565b610f5b9190614413565b90509250929050565b6000610f6f83611374565b8210610fb0576040517f08c379a0000000000000000000000000000000000000000000000000000000008152600401610fa790613fbd565b60405180910390fd5b600660008473ffffffffffffffffffffffffffffffffffffffff1673ffffffffffffffffffffffffffffffffffffffff168152602001908152602001600020600083815260200190815260200160002054905092915050565b6000600b60008373ffffffffffffffffffffffffffffffffffffffff1673ffffffffffffffffffffffffffffffffffffffff16815260200190815260200160002060009054906101000a900460ff169050919050565b6110676121c7565b6000601360009054906101000a900473ffffffffffffffffffffffffffffffffffffffff1673ffffffffffffffffffffffffffffffffffffffff16476040516110af90613e60565b60006040518083038185875af1925050503d80600081146110ec576040519150601f19603f3d011682016040523d82523d6000602084013e6110f1565b606091505b5050905080611135576040517f08c379a000000000000000000000000000000000000000000000000000000000815260040161112c9061429d565b60405180910390fd5b50565b6111406121c7565b611148612245565b565b611165838383604051806020016040528060008152506119b1565b505050565b60105481565b6101f481565b6000611180610ec6565b82106111c1576040517f08c379a00000000000000000000000000000000000000000000000000000000081526004016111b89061425d565b60405180910390fd5b600882815481106111fb577f4e487b7100000000000000000000000000000000000000000000000000000000600052603260045260246000fd5b90600052602060002001549050919050565b6112156121c7565b60005b81518110156112cc576000600b6000848481518110611260577f4e487b7100000000000000000000000000000000000000000000000000000000600052603260045260246000fd5b602002602001015173ffffffffffffffffffffffffffffffffffffffff1673ffffffffffffffffffffffffffffffffffffffff16815260200190815260200160002060006101000a81548160ff02191690831515021790555080806112c4906145fd565b915050611218565b5050565b6000600a60149054906101000a900460ff16905090565b6000806112f3836122a8565b9050600073ffffffffffffffffffffffffffffffffffffffff168173ffffffffffffffffffffffffffffffffffffffff161415611365576040517f08c379a000000000000000000000000000000000000000000000000000000000815260040161135c906141dd565b60405180910390fd5b80915050919050565b600d5481565b60008073ffffffffffffffffffffffffffffffffffffffff168273ffffffffffffffffffffffffffffffffffffffff1614156113e5576040517f08c379a00000000000000000000000000000000000000000000000000000000081526004016113dc9061413d565b60405180910390fd5b600360008373ffffffffffffffffffffffffffffffffffffffff1673ffffffffffffffffffffffffffffffffffffffff168152602001908152602001600020549050919050565b6114346121c7565b61143e60006122e5565b565b600c6020528060005260406000206000915054906101000a900460ff1681565b600b60003373ffffffffffffffffffffffffffffffffffffffff1673ffffffffffffffffffffffffffffffffffffffff16815260200190815260200160002060009054906101000a900460ff166114ec576040517f08c379a00000000000000000000000000000000000000000000000000000000081526004016114e3906141bd565b60405180910390fd5b600c60003373ffffffffffffffffffffffffffffffffffffffff1673ffffffffffffffffffffffffffffffffffffffff16815260200190815260200160002060009054906101000a900460ff1615611579576040517f08c379a00000000000000000000000000000000000000000000000000000000081526004016115709061417d565b60405180910390fd5b600f54600e54106115bf576040517f08c379a00000000000000000000000000000000000000000000000000000000081526004016115b69061423d565b60405180910390fd5b601054601460003373ffffffffffffffffffffffffffffffffffffffff1673ffffffffffffffffffffffffffffffffffffffff1681526020019081526020016000205410611642576040517f08c379a00000000000000000000000000000000000000000000000000000000081526004016116399061407d565b60405180910390fd5b61165a336001600e5461165591906143bd565b6123ab565b6001600e600082825461166d91906143bd565b925050819055506001601460003373ffffffffffffffffffffffffffffffffffffffff1673ffffffffffffffffffffffffffffffffffffffff16815260200190815260200160002060008282546116c491906143bd565b925050819055506001600c60003373ffffffffffffffffffffffffffffffffffffffff1673ffffffffffffffffffffffffffffffffffffffff16815260200190815260200160002060006101000a81548160ff021916908315150217905550565b61172d6121c7565b60005b81518110156117e4576001600b6000848481518110611778577f4e487b7100000000000000000000000000000000000000000000000000000000600052603260045260246000fd5b602002602001015173ffffffffffffffffffffffffffffffffffffffff1673ffffffffffffffffffffffffffffffffffffffff16815260200190815260200160002060006101000a81548160ff02191690831515021790555080806117dc906145fd565b915050611730565b5050565b6117f06121c7565b80601160006101000a81548160ff02191690831515021790555050565b6118156121c7565b61181d6125c9565b565b601360009054906101000a900473ffffffffffffffffffffffffffffffffffffffff1681565b6000600a60009054906101000a900473ffffffffffffffffffffffffffffffffffffffff16905090565b6118776121c7565b80601360006101000a81548173ffffffffffffffffffffffffffffffffffffffff021916908373ffffffffffffffffffffffffffffffffffffffff16021790555050565b6118c36121c7565b8181601291906118d492919061333d565b505050565b6060600180546118e89061459a565b80601f01602080910402602001604051908101604052809291908181526020018280546119149061459a565b80156119615780601f1061193657610100808354040283529160200191611961565b820191906000526020600020905b81548152906001019060200180831161194457829003601f168201915b5050505050905090565b600b6020528060005260406000206000915054906101000a900460ff1681565b61199d611996611d0f565b838361262c565b5050565b600e5481565b6000600d54905090565b6119c26119bc611d0f565b83611e38565b611a01576040517f08c379a00000000000000000000000000000000000000000000000000000000081526004016119f890613f9d565b60405180910390fd5b611a0d84848484612799565b50505050565b601160009054906101000a900460ff1681565b6000600e54905090565b6060611a3b826127f5565b611a7a576040517f08c379a0000000000000000000000000000000000000000000000000000000008152600401611a71906140dd565b60405180910390fd5b6012611a8583612836565b604051602001611a96929190613e31565b6040516020818303038152906040529050919050565b600f5481565b6000600560008473ffffffffffffffffffffffffffffffffffffffff1673ffffffffffffffffffffffffffffffffffffffff16815260200190815260200160002060008373ffffffffffffffffffffffffffffffffffffffff1673ffffffffffffffffffffffffffffffffffffffff16815260200190815260200160002060009054906101000a900460ff16905092915050565b60146020528060005260406000206000915090505481565b611b666121c7565b600073ffffffffffffffffffffffffffffffffffffffff168173ffffffffffffffffffffffffffffffffffffffff161415611bd6576040517f08c379a0000000000000000000000000000000000000000000000000000000008152600401611bcd9061401d565b60405180910390fd5b611bdf816122e5565b50565b60007f80ac58cd000000000000000000000000000000000000000000000000000000007bffffffffffffffffffffffffffffffffffffffffffffffffffffffff1916827bffffffffffffffffffffffffffffffffffffffffffffffffffffffff19161480611cad57507f5b5e139f000000000000000000000000000000000000000000000000000000007bffffffffffffffffffffffffffffffffffffffffffffffffffffffff1916827bffffffffffffffffffffffffffffffffffffffffffffffffffffffff1916145b80611cbd5750611cbc8261295a565b5b9050919050565b611ccd816127f5565b611d0c576040517f08c379a0000000000000000000000000000000000000000000000000000000008152600401611d03906141dd565b60405180910390fd5b50565b600033905090565b816004600083815260200190815260200160002060006101000a81548173ffffffffffffffffffffffffffffffffffffffff021916908373ffffffffffffffffffffffffffffffffffffffff160217905550808273ffffffffffffffffffffffffffffffffffffffff16611d8a836112e7565b73ffffffffffffffffffffffffffffffffffffffff167f8c5be1e5ebec7d5bd14f71427d1e84f3dd0314c0f7b2291e5b200ac8c7c3b92560405160405180910390a45050565b611dd86112d0565b15611e18576040517f08c379a0000000000000000000000000000000000000000000000000000000008152600401611e0f9061411d565b60405180910390fd5b565b611e348282604051806020016040528060008152506129c4565b5050565b600080611e44836112e7565b90508073ffffffffffffffffffffffffffffffffffffffff168473ffffffffffffffffffffffffffffffffffffffff161480611e865750611e858185611ab2565b5b80611ec457508373ffffffffffffffffffffffffffffffffffffffff16611eac84610b2c565b73ffffffffffffffffffffffffffffffffffffffff16145b91505092915050565b8273ffffffffffffffffffffffffffffffffffffffff16611eed826112e7565b73ffffffffffffffffffffffffffffffffffffffff1614611f43576040517f08c379a0000000000000000000000000000000000000000000000000000000008152600401611f3a9061403d565b60405180910390fd5b600073ffffffffffffffffffffffffffffffffffffffff168273ffffffffffffffffffffffffffffffffffffffff161415611fb3576040517f08c379a0000000000000000000000000000000000000000000000000000000008152600401611faa9061409d565b60405180910390fd5b611fc08383836001612a1f565b8273ffffffffffffffffffffffffffffffffffffffff16611fe0826112e7565b73ffffffffffffffffffffffffffffffffffffffff1614612036576040517f08c379a000000000000000000000000000000000000000000000000000000000815260040161202d9061403d565b60405180910390fd5b6004600082815260200190815260200160002060006101000a81549073ffffffffffffffffffffffffffffffffffffffff02191690556001600360008573ffffffffffffffffffffffffffffffffffffffff1673ffffffffffffffffffffffffffffffffffffffff168152602001908152602001600020600082825403925050819055506001600360008473ffffffffffffffffffffffffffffffffffffffff1673ffffffffffffffffffffffffffffffffffffffff16815260200190815260200160002060008282540192505081905550816002600083815260200190815260200160002060006101000a81548173ffffffffffffffffffffffffffffffffffffffff021916908373ffffffffffffffffffffffffffffffffffffffff160217905550808273ffffffffffffffffffffffffffffffffffffffff168473ffffffffffffffffffffffffffffffffffffffff167fddf252ad1be2c89b69c2b068fc378daa952ba7f163c4a11628f55a4df523b3ef60405160405180910390a46121c28383836001612b7f565b505050565b6121cf611d0f565b73ffffffffffffffffffffffffffffffffffffffff166121ed611845565b73ffffffffffffffffffffffffffffffffffffffff1614612243576040517f08c379a000000000000000000000000000000000000000000000000000000000815260040161223a9061419d565b60405180910390fd5b565b61224d612b85565b6000600a60146101000a81548160ff0219169083151502179055507f5db9ee0a495bf2e6ff9c91a7834c1ba4fdd244a5e8aa4e537bd38aeae4b073aa612291611d0f565b60405161229e9190613e75565b60405180910390a1565b60006002600083815260200190815260200160002060009054906101000a900473ffffffffffffffffffffffffffffffffffffffff169050919050565b6000600a60009054906101000a900473ffffffffffffffffffffffffffffffffffffffff16905081600a60006101000a81548173ffffffffffffffffffffffffffffffffffffffff021916908373ffffffffffffffffffffffffffffffffffffffff1602179055508173ffffffffffffffffffffffffffffffffffffffff168173ffffffffffffffffffffffffffffffffffffffff167f8be0079c531659141344cd1fd0a4f28419497f9722a3daafe3b4186f6b6457e060405160405180910390a35050565b600073ffffffffffffffffffffffffffffffffffffffff168273ffffffffffffffffffffffffffffffffffffffff16141561241b576040517f08c379a00000000000000000000000000000000000000000000000000000000081526004016124129061415d565b60405180910390fd5b612424816127f5565b15612464576040517f08c379a000000000000000000000000000000000000000000000000000000000815260040161245b9061405d565b60405180910390fd5b612472600083836001612a1f565b61247b816127f5565b156124bb576040517f08c379a00000000000000000000000000000000000000000000000000000000081526004016124b29061405d565b60405180910390fd5b6001600360008473ffffffffffffffffffffffffffffffffffffffff1673ffffffffffffffffffffffffffffffffffffffff16815260200190815260200160002060008282540192505081905550816002600083815260200190815260200160002060006101000a81548173ffffffffffffffffffffffffffffffffffffffff021916908373ffffffffffffffffffffffffffffffffffffffff160217905550808273ffffffffffffffffffffffffffffffffffffffff16600073ffffffffffffffffffffffffffffffffffffffff167fddf252ad1be2c89b69c2b068fc378daa952ba7f163c4a11628f55a4df523b3ef60405160405180910390a46125c5600083836001612b7f565b5050565b6125d1611dd0565b6001600a60146101000a81548160ff0219169083151502179055507f62e78cea01bee320cd4e420270b5ea74000d11b0c9f74754ebdbfc544b05a258612615611d0f565b6040516126229190613e75565b60405180910390a1565b8173ffffffffffffffffffffffffffffffffffffffff168373ffffffffffffffffffffffffffffffffffffffff16141561269b576040517f08c379a0000000000000000000000000000000000000000000000000000000008152600401612692906140bd565b60405180910390fd5b80600560008573ffffffffffffffffffffffffffffffffffffffff1673ffffffffffffffffffffffffffffffffffffffff16815260200190815260200160002060008473ffffffffffffffffffffffffffffffffffffffff1673ffffffffffffffffffffffffffffffffffffffff16815260200190815260200160002060006101000a81548160ff0219169083151502179055508173ffffffffffffffffffffffffffffffffffffffff168373ffffffffffffffffffffffffffffffffffffffff167f17307eab39ab6107e8899845ad3d59bd9653f200f220920489ca2b5937696c318360405161278c9190613f20565b60405180910390a3505050565b6127a4848484611ecd565b6127b084848484612bce565b6127ef576040517f08c379a00000000000000000000000000000000000000000000000000000000081526004016127e690613fdd565b60405180910390fd5b50505050565b60008073ffffffffffffffffffffffffffffffffffffffff16612817836122a8565b73ffffffffffffffffffffffffffffffffffffffff1614159050919050565b60606000600161284584612d65565b01905060008167ffffffffffffffff81111561288a577f4e487b7100000000000000000000000000000000000000000000000000000000600052604160045260246000fd5b6040519080825280601f01601f1916602001820160405280156128bc5781602001600182028036833780820191505090505b509050600082602001820190505b60011561294f578080600190039150507f3031323334353637383961626364656600000000000000000000000000000000600a86061a8153600a8581612939577f4e487b7100000000000000000000000000000000000000000000000000000000600052601260045260246000fd5b049450600085141561294a5761294f565b6128ca565b819350505050919050565b60007f01ffc9a7000000000000000000000000000000000000000000000000000000007bffffffffffffffffffffffffffffffffffffffffffffffffffffffff1916827bffffffffffffffffffffffffffffffffffffffffffffffffffffffff1916149050919050565b6129ce83836123ab565b6129db6000848484612bce565b612a1a576040517f08c379a0000000000000000000000000000000000000000000000000000000008152600401612a1190613fdd565b60405180910390fd5b505050565b612a2b84848484612f9c565b6001811115612a6f576040517f08c379a0000000000000000000000000000000000000000000000000000000008152600401612a669061427d565b60405180910390fd5b6000829050600073ffffffffffffffffffffffffffffffffffffffff168573ffffffffffffffffffffffffffffffffffffffff161415612ab757612ab281612fa2565b612af6565b8373ffffffffffffffffffffffffffffffffffffffff168573ffffffffffffffffffffffffffffffffffffffff1614612af557612af48582612feb565b5b5b600073ffffffffffffffffffffffffffffffffffffffff168473ffffffffffffffffffffffffffffffffffffffff161415612b3957612b3481613158565b612b78565b8473ffffffffffffffffffffffffffffffffffffffff168473ffffffffffffffffffffffffffffffffffffffff1614612b7757612b76848261329b565b5b5b5050505050565b50505050565b612b8d6112d0565b612bcc576040517f08c379a0000000000000000000000000000000000000000000000000000000008152600401612bc390613f7d565b60405180910390fd5b565b6000612bef8473ffffffffffffffffffffffffffffffffffffffff1661331a565b15612d58578373ffffffffffffffffffffffffffffffffffffffff1663150b7a02612c18611d0f565b8786866040518563ffffffff1660e01b8152600401612c3a9493929190613eab565b602060405180830381600087803b158015612c5457600080fd5b505af1925050508015612c8557506040513d601f19601f82011682018060405250810190612c829190613809565b60015b612d08573d8060008114612cb5576040519150601f19603f3d011682016040523d82523d6000602084013e612cba565b606091505b50600081511415612d00576040517f08c379a0000000000000000000000000000000000000000000000000000000008152600401612cf790613fdd565b60405180910390fd5b805181602001fd5b63150b7a0260e01b7bffffffffffffffffffffffffffffffffffffffffffffffffffffffff1916817bffffffffffffffffffffffffffffffffffffffffffffffffffffffff191614915050612d5d565b600190505b949350505050565b600080600090507a184f03e93ff9f4daa797ed6e38ed64bf6a1f0100000000000000008310612de9577a184f03e93ff9f4daa797ed6e38ed64bf6a1f0100000000000000008381612ddf577f4e487b7100000000000000000000000000000000000000000000000000000000600052601260045260246000fd5b0492506040810190505b6d04ee2d6d415b85acef81000000008310612e4c576d04ee2d6d415b85acef81000000008381612e42577f4e487b7100000000000000000000000000000000000000000000000000000000600052601260045260246000fd5b0492506020810190505b662386f26fc100008310612ea157662386f26fc100008381612e97577f4e487b7100000000000000000000000000000000000000000000000000000000600052601260045260246000fd5b0492506010810190505b6305f5e1008310612ef0576305f5e1008381612ee6577f4e487b7100000000000000000000000000000000000000000000000000000000600052601260045260246000fd5b0492506008810190505b6127108310612f3b576127108381612f31577f4e487b7100000000000000000000000000000000000000000000000000000000600052601260045260246000fd5b0492506004810190505b60648310612f845760648381612f7a577f4e487b7100000000000000000000000000000000000000000000000000000000600052601260045260246000fd5b0492506002810190505b600a8310612f93576001810190505b80915050919050565b50505050565b6008805490506009600083815260200190815260200160002081905550600881908060018154018082558091505060019003906000526020600020016000909190919091505550565b60006001612ff884611374565b613002919061449e565b90506000600760008481526020019081526020016000205490508181146130e7576000600660008673ffffffffffffffffffffffffffffffffffffffff1673ffffffffffffffffffffffffffffffffffffffff168152602001908152602001600020600084815260200190815260200160002054905080600660008773ffffffffffffffffffffffffffffffffffffffff1673ffffffffffffffffffffffffffffffffffffffff168152602001908152602001600020600084815260200190815260200160002081905550816007600083815260200190815260200160002081905550505b6007600084815260200190815260200160002060009055600660008573ffffffffffffffffffffffffffffffffffffffff1673ffffffffffffffffffffffffffffffffffffffff16815260200190815260200160002060008381526020019081526020016000206000905550505050565b6000600160088054905061316c919061449e565b90506000600960008481526020019081526020016000205490506000600883815481106131c2577f4e487b7100000000000000000000000000000000000000000000000000000000600052603260045260246000fd5b90600052602060002001549050806008838154811061320a577f4e487b7100000000000000000000000000000000000000000000000000000000600052603260045260246000fd5b90600052602060002001819055508160096000838152602001908152602001600020819055506009600085815260200190815260200160002060009055600880548061327f577f4e487b7100000000000000000000000000000000000000000000000000000000600052603160045260246000fd5b6001900381819060005260206000200160009055905550505050565b60006132a683611374565b905081600660008573ffffffffffffffffffffffffffffffffffffffff1673ffffffffffffffffffffffffffffffffffffffff168152602001908152602001600020600083815260200190815260200160002081905550806007600084815260200190815260200160002081905550505050565b6000808273ffffffffffffffffffffffffffffffffffffffff163b119050919050565b8280546133499061459a565b90600052602060002090601f01602090048101928261336b57600085556133b2565b82601f1061338457803560ff19168380011785556133b2565b828001600101855582156133b2579182015b828111156133b1578235825591602001919060010190613396565b5b5090506133bf91906133c3565b5090565b5b808211156133dc5760008160009055506001016133c4565b5090565b60006133f36133ee846142fd565b6142d8565b9050808382526020820190508285602086028201111561341257600080fd5b60005b858110156134425781613428888261348a565b845260208401935060208301925050600181019050613415565b5050509392505050565b600061345f61345a84614329565b6142d8565b90508281526020810184848401111561347757600080fd5b613482848285614558565b509392505050565b60008135905061349981614d34565b92915050565b6000813590506134ae81614d4b565b92915050565b600082601f8301126134c557600080fd5b81356134d58482602086016133e0565b91505092915050565b6000813590506134ed81614d62565b92915050565b60008135905061350281614d79565b92915050565b60008151905061351781614d79565b92915050565b600082601f83011261352e57600080fd5b813561353e84826020860161344c565b91505092915050565b60008083601f84011261355957600080fd5b8235905067ffffffffffffffff81111561357257600080fd5b60208301915083600182028301111561358a57600080fd5b9250929050565b6000813590506135a081614d90565b92915050565b6000602082840312156135b857600080fd5b60006135c68482850161348a565b91505092915050565b6000602082840312156135e157600080fd5b60006135ef8482850161349f565b91505092915050565b6000806040838503121561360b57600080fd5b60006136198582860161348a565b925050602061362a8582860161348a565b9150509250929050565b60008060006060848603121561364957600080fd5b60006136578682870161348a565b93505060206136688682870161348a565b925050604061367986828701613591565b9150509250925092565b6000806000806080858703121561369957600080fd5b60006136a78782880161348a565b94505060206136b88782880161348a565b93505060406136c987828801613591565b925050606085013567ffffffffffffffff8111156136e657600080fd5b6136f28782880161351d565b91505092959194509250565b6000806040838503121561371157600080fd5b600061371f8582860161348a565b9250506020613730858286016134de565b9150509250929050565b6000806040838503121561374d57600080fd5b600061375b8582860161348a565b925050602061376c85828601613591565b9150509250929050565b60006020828403121561378857600080fd5b600082013567ffffffffffffffff8111156137a257600080fd5b6137ae848285016134b4565b91505092915050565b6000602082840312156137c957600080fd5b60006137d7848285016134de565b91505092915050565b6000602082840312156137f257600080fd5b6000613800848285016134f3565b91505092915050565b60006020828403121561381b57600080fd5b600061382984828501613508565b91505092915050565b6000806020838503121561384557600080fd5b600083013567ffffffffffffffff81111561385f57600080fd5b61386b85828601613547565b92509250509250929050565b60006020828403121561388957600080fd5b600061389784828501613591565b91505092915050565b600080604083850312156138b357600080fd5b60006138c185828601613591565b92505060206138d285828601613591565b9150509250929050565b6138e5816144e4565b82525050565b6138f4816144d2565b82525050565b613903816144f6565b82525050565b60006139148261436f565b61391e8185614385565b935061392e818560208601614567565b61393781614702565b840191505092915050565b600061394d8261437a565b61395781856143a1565b9350613967818560208601614567565b61397081614702565b840191505092915050565b60006139868261437a565b61399081856143b2565b93506139a0818560208601614567565b80840191505092915050565b600081546139b98161459a565b6139c381866143b2565b945060018216600081146139de57600181146139ef57613a22565b60ff19831686528186019350613a22565b6139f88561435a565b60005b83811015613a1a578154818901526001820191506020810190506139fb565b838801955050505b50505092915050565b6000613a386010836143a1565b9150613a4382614713565b602082019050919050565b6000613a5b6014836143a1565b9150613a668261473c565b602082019050919050565b6000613a7e602d836143a1565b9150613a8982614765565b604082019050919050565b6000613aa1602b836143a1565b9150613aac826147b4565b604082019050919050565b6000613ac46032836143a1565b9150613acf82614803565b604082019050919050565b6000613ae76013836143a1565b9150613af282614852565b602082019050919050565b6000613b0a6026836143a1565b9150613b158261487b565b604082019050919050565b6000613b2d6025836143a1565b9150613b38826148ca565b604082019050919050565b6000613b50601c836143a1565b9150613b5b82614919565b602082019050919050565b6000613b736011836143a1565b9150613b7e82614942565b602082019050919050565b6000613b966024836143a1565b9150613ba18261496b565b604082019050919050565b6000613bb96019836143a1565b9150613bc4826149ba565b602082019050919050565b6000613bdc6014836143a1565b9150613be7826149e3565b602082019050919050565b6000613bff6008836143a1565b9150613c0a82614a0c565b602082019050919050565b6000613c226010836143a1565b9150613c2d82614a35565b602082019050919050565b6000613c456029836143a1565b9150613c5082614a5e565b604082019050919050565b6000613c686020836143a1565b9150613c7382614aad565b602082019050919050565b6000613c8b600f836143a1565b9150613c9682614ad6565b602082019050919050565b6000613cae6005836143b2565b9150613cb982614aff565b600582019050919050565b6000613cd16020836143a1565b9150613cdc82614b28565b602082019050919050565b6000613cf46017836143a1565b9150613cff82614b51565b602082019050919050565b6000613d176018836143a1565b9150613d2282614b7a565b602082019050919050565b6000613d3a6021836143a1565b9150613d4582614ba3565b604082019050919050565b6000613d5d600083614396565b9150613d6882614bf2565b600082019050919050565b6000613d80603d836143a1565b9150613d8b82614bf5565b604082019050919050565b6000613da36012836143a1565b9150613dae82614c44565b602082019050919050565b6000613dc6602c836143a1565b9150613dd182614c6d565b604082019050919050565b6000613de96035836143a1565b9150613df482614cbc565b604082019050919050565b6000613e0c600f836143a1565b9150613e1782614d0b565b602082019050919050565b613e2b8161454e565b82525050565b6000613e3d82856139ac565b9150613e49828461397b565b9150613e5482613ca1565b91508190509392505050565b6000613e6b82613d50565b9150819050919050565b6000602082019050613e8a60008301846138eb565b92915050565b6000602082019050613ea560008301846138dc565b92915050565b6000608082019050613ec060008301876138eb565b613ecd60208301866138eb565b613eda6040830185613e22565b8181036060830152613eec8184613909565b905095945050505050565b6000604082019050613f0c60008301856138eb565b613f196020830184613e22565b9392505050565b6000602082019050613f3560008301846138fa565b92915050565b60006020820190508181036000830152613f558184613942565b905092915050565b60006020820190508181036000830152613f7681613a2b565b9050919050565b60006020820190508181036000830152613f9681613a4e565b9050919050565b60006020820190508181036000830152613fb681613a71565b9050919050565b60006020820190508181036000830152613fd681613a94565b9050919050565b60006020820190508181036000830152613ff681613ab7565b9050919050565b6000602082019050818103600083015261401681613ada565b9050919050565b6000602082019050818103600083015261403681613afd565b9050919050565b6000602082019050818103600083015261405681613b20565b9050919050565b6000602082019050818103600083015261407681613b43565b9050919050565b6000602082019050818103600083015261409681613b66565b9050919050565b600060208201905081810360008301526140b681613b89565b9050919050565b600060208201905081810360008301526140d681613bac565b9050919050565b600060208201905081810360008301526140f681613bcf565b9050919050565b6000602082019050818103600083015261411681613bf2565b9050919050565b6000602082019050818103600083015261413681613c15565b9050919050565b6000602082019050818103600083015261415681613c38565b9050919050565b6000602082019050818103600083015261417681613c5b565b9050919050565b6000602082019050818103600083015261419681613c7e565b9050919050565b600060208201905081810360008301526141b681613cc4565b9050919050565b600060208201905081810360008301526141d681613ce7565b9050919050565b600060208201905081810360008301526141f681613d0a565b9050919050565b6000602082019050818103600083015261421681613d2d565b9050919050565b6000602082019050818103600083015261423681613d73565b9050919050565b6000602082019050818103600083015261425681613d96565b9050919050565b6000602082019050818103600083015261427681613db9565b9050919050565b6000602082019050818103600083015261429681613ddc565b9050919050565b600060208201905081810360008301526142b681613dff565b9050919050565b60006020820190506142d26000830184613e22565b92915050565b60006142e26142f3565b90506142ee82826145cc565b919050565b6000604051905090565b600067ffffffffffffffff821115614318576143176146d3565b5b602082029050602081019050919050565b600067ffffffffffffffff821115614344576143436146d3565b5b61434d82614702565b9050602081019050919050565b60008190508160005260206000209050919050565b600081519050919050565b600081519050919050565b600082825260208201905092915050565b600081905092915050565b600082825260208201905092915050565b600081905092915050565b60006143c88261454e565b91506143d38361454e565b9250827fffffffffffffffffffffffffffffffffffffffffffffffffffffffffffffffff0382111561440857614407614646565b5b828201905092915050565b600061441e8261454e565b91506144298361454e565b92508261443957614438614675565b5b828204905092915050565b600061444f8261454e565b915061445a8361454e565b9250817fffffffffffffffffffffffffffffffffffffffffffffffffffffffffffffffff048311821515161561449357614492614646565b5b828202905092915050565b60006144a98261454e565b91506144b48361454e565b9250828210156144c7576144c6614646565b5b828203905092915050565b60006144dd8261452e565b9050919050565b60006144ef8261452e565b9050919050565b60008115159050919050565b60007fffffffff0000000000000000000000000000000000000000000000000000000082169050919050565b600073ffffffffffffffffffffffffffffffffffffffff82169050919050565b6000819050919050565b82818337600083830152505050565b60005b8381101561458557808201518184015260208101905061456a565b83811115614594576000848401525b50505050565b600060028204905060018216806145b257607f821691505b602082108114156145c6576145c56146a4565b5b50919050565b6145d582614702565b810181811067ffffffffffffffff821117156145f4576145f36146d3565b5b80604052505050565b60006146088261454e565b91507fffffffffffffffffffffffffffffffffffffffffffffffffffffffffffffffff82141561463b5761463a614646565b5b600182019050919050565b7f4e487b7100000000000000000000000000000000000000000000000000000000600052601160045260246000fd5b7f4e487b7100000000000000000000000000000000000000000000000000000000600052601260045260246000fd5b7f4e487b7100000000000000000000000000000000000000000000000000000000600052602260045260246000fd5b7f4e487b7100000000000000000000000000000000000000000000000000000000600052604160045260246000fd5b6000601f19601f8301169050919050565b7f77726f6e67206d696e742076616c756500000000000000000000000000000000600082015250565b7f5061757361626c653a206e6f7420706175736564000000000000000000000000600082015250565b7f4552433732313a2063616c6c6572206973206e6f7420746f6b656e206f776e6560008201527f72206f7220617070726f76656400000000000000000000000000000000000000602082015250565b7f455243373231456e756d657261626c653a206f776e657220696e646578206f7560008201527f74206f6620626f756e6473000000000000000000000000000000000000000000602082015250565b7f4552433732313a207472616e7366657220746f206e6f6e20455243373231526560008201527f63656976657220696d706c656d656e7465720000000000000000000000000000602082015250565b7f6d696e74696e67206e6f7420656e61626c656400000000000000000000000000600082015250565b7f4f776e61626c653a206e6577206f776e657220697320746865207a65726f206160008201527f6464726573730000000000000000000000000000000000000000000000000000602082015250565b7f4552433732313a207472616e736665722066726f6d20696e636f72726563742060008201527f6f776e6572000000000000000000000000000000000000000000000000000000602082015250565b7f4552433732313a20746f6b656e20616c7265616479206d696e74656400000000600082015250565b7f6d6178206d696e74732072656163686564000000000000000000000000000000600082015250565b7f4552433732313a207472616e7366657220746f20746865207a65726f2061646460008201527f7265737300000000000000000000000000000000000000000000000000000000602082015250565b7f4552433732313a20617070726f766520746f2063616c6c657200000000000000600082015250565b7f546f6b656e20646f6573206e6f74206578697374000000000000000000000000600082015250565b7f736f6c64206f7574000000000000000000000000000000000000000000000000600082015250565b7f5061757361626c653a2070617573656400000000000000000000000000000000600082015250565b7f4552433732313a2061646472657373207a65726f206973206e6f74206120766160008201527f6c6964206f776e65720000000000000000000000000000000000000000000000602082015250565b7f4552433732313a206d696e7420746f20746865207a65726f2061646472657373600082015250565b7f416c726561647920636c61696d65640000000000000000000000000000000000600082015250565b7f2e6a736f6e000000000000000000000000000000000000000000000000000000600082015250565b7f4f776e61626c653a2063616c6c6572206973206e6f7420746865206f776e6572600082015250565b7f41646472657373206e6f742077686974656c6973746564000000000000000000600082015250565b7f4552433732313a20696e76616c696420746f6b656e2049440000000000000000600082015250565b7f4552433732313a20617070726f76616c20746f2063757272656e74206f776e6560008201527f7200000000000000000000000000000000000000000000000000000000000000602082015250565b50565b7f4552433732313a20617070726f76652063616c6c6572206973206e6f7420746f60008201527f6b656e206f776e6572206f7220617070726f76656420666f7220616c6c000000602082015250565b7f4d617820737570706c7920726561636865640000000000000000000000000000600082015250565b7f455243373231456e756d657261626c653a20676c6f62616c20696e646578206f60008201527f7574206f6620626f756e64730000000000000000000000000000000000000000602082015250565b7f455243373231456e756d657261626c653a20636f6e736563757469766520747260008201527f616e7366657273206e6f7420737570706f727465640000000000000000000000602082015250565b7f7769746864726177206661696c65640000000000000000000000000000000000600082015250565b614d3d816144d2565b8114614d4857600080fd5b50565b614d54816144e4565b8114614d5f57600080fd5b50565b614d6b816144f6565b8114614d7657600080fd5b50565b614d8281614502565b8114614d8d57600080fd5b50565b614d998161454e565b8114614da457600080fd5b5056fea2646970667358221220c1250fe34181c9e6914461cf8a791883dcdf002347c635b40f4717d65f88829164736f6c6343000804003368747470733a2f2f697066732e696f2f697066732f516d647833716334743847594d68356e41514e6f776f55554265416e72654e32687a6750566b47743663614161632f",
  "linkReferences": {},
  "deployedLinkReferences": {}
}